S01700005034524D5F61746D656761333238502E737265632F
S11300000C9436000C9453000C9453000C9453003D
S11300100C9482000C9453000C9453000C946600CE
S11300200C9453000C9453000C9453000C94530000
S11300300C9453000C9453000C9453000C945300F0
S11300400C9483010C9453000C9453000C945300AF
S11300500C9453000C9453000C9453000C945300D0
S11300600C94AA000C945300B401B90111241FBECE
S1130070CFEFD8E0DEBFCDBF21E0A0E0B1E001C00A
S11300801D92A133B207E1F710E0CAE6D0E004C044
S11300902297FE010E941306C836D107C9F70E94B1
S11300A055000C9417060C94000078942FEF83ED00
S11300B090E3215080409040E1F700C000008FE0C1
S11300C091E00E94660380E090E008951F920F92F1
S11300D00FB60F9211248F9380910E018F5F843697
S11300E019F080930E0105C010920E0181E08093F7
S11300F0040181E0809305018F910F900FBE0F9052
S11301001F9018951F920F920FB60F9211242F93E0
S11301103F934F935F936F937F938F939F93AF938B
S1130120BF93EF93FF9361E070E08FE091E00E9452
S11301304403FF91EF91BF91AF919F918F917F9174
S11301406F915F914F913F912F910F900FBE0F9040
S11301501F9018951F920F920FB60F9211242F9390
S11301603F934F935F936F937F938F939F93AF933B
S1130170BF93CF93EF93FF938091B900887F80362C
S113018021F481E08093020199C08091B900887FB5
S1130190803809F057C080910201882309F44AC0CD
S11301A0C091BB00C5FF43C08091080120910901A3
S11301B0205E90910B01990F920F20910A01220F5A
S11301C0220F920F282F220F220F220F920F20911D
S11301D0070130E1239F900D11249C1741F191E018
S11301E0909301019C2F91709093090191E0C1FFBC
S11301F090E090930B0191E0C2FF90E090930A018C
S113020091E0C4FF90E09093070181110BC0C3FFFC
S113021009C08FE091E00E944A03811103C016BC1B
S113022010920D0181E0C3FF80E0809308011092D9
S1130230020144C08091BB0080930C0181E0809353
S113024003013CC08091B900887F883A29F58FE08A
S113025091E00E944A038823B9F190910D019770AF
S1130260990F990F990F890F90910801911103C06B
S113027081112FC00EC096B590930601811102C062
S113028016BC80E020910601207830E03595279552
S1130290820F8093BB0012C08091B900887F883B95
S11302A031F4809106018F778093BB0007C0809161
S11302B0B900887F19F481E080930001ECEBF0E051
S11302C08081806880830DC090910801911105C0E0
S11302D0E0CF96B590930601D5CF86B580930601FD
S11302E0CFCFFF91EF91CF91BF91AF919F918F911C
S11302F07F916F915F914F913F912F910F900FBE1E
S11303000F901F9018951F920F920FB60F92112401
S11303102F933F934F935F936F937F938F939F9309
S1130320AF93BF93EF93FF9380910801882359F013
S113033062E070E08FE091E00E94440380910D013F
S11303408F5F80930D01FF91EF91BF91AF919F91CA
S11303508F917F916F915F914F913F912F910F906A
S11303600FBE0F901F9018958FE091E00E941D031F
S113037008958FE091E00E94D80208950895FC0149
S11303808081880FEAEBF0E0808380818160808344
S113039081E88093BC000895FC0160830E94BF0142
S11303A00895ECEBF0E08081846480830895ECEBA5
S11303B0F0E080818B7B808308950895CF93DF9351
S11303C0EC018A85811121C0E0E8F0E082E08083BD
S11303D080818E7F8083A1E8B0E088E18C93808166
S11303E08068808380818F7B80838C9181608C93F3
S11303F08C91897F8C9380E293E099838883909396
S113040087008093860081E08A87DF91CF910895E9
S1130410FC011282138214821582168217821086BE
S11304201186128613860E94DE010895FC018285DE
S1130430882311F0309B419A0895FC0112821382A3
S11304401482158241980895FC016387662311F094
S11304502A9A08952A980895CF93DF93EC0170E0C7
S113046080E090E00E94FA0429EC38EC48E450E47F
S11304700E94AE056E837F8388879987DF91CF9131
S113048008954F925F926F927F928F929F92AF9254
S1130490BF92CF92DF92EF92FF92CF93DF93EC0162
S11304A080910901882309F44BC08A809B80AC8029
S11304B0BD80C501B4010E94FA042B013C01CE8029
S11304C0DF80E884F98420E030E040E251E4C701B1
S11304D0B6010E945F049B01AC01C301B2010E94FA
S11304E0AA05882354F08AE0881A9108A108B10863
S11304F08A829B82AC82BD822DC020E030E040E243
S113050051E4C701B6010E945E049B01AC01C30122
S1130510B2010E94C304181654F08AE0880E911C9C
S1130520A11CB11C8A829B82AC82BD8213C0C7010C
S1130530B6010E94C7046A837B838C839D830AC0AF
S11305406E817F81888599850E94C7046A837B8335
S11305508C839D834A815B816C817D81413283E000
S11305605807610571054CF040E253E060E070E02B
S11305704A835B836C837D8306C0772324F41A82C9
S11305801B821C821D828A819B81909389008093A7
S11305908800DF91CF91FF90EF90DF90CF90BF90D4
S11305A0AF909F908F907F906F905F904F90089541
S11305B0EF92FF920F931F93CF93DF93EC017C0193
S11305C085E0E80EF11CC7010E941D028E010C5F3C
S11305D01F4FC8010E94D701CE0141960E94C70354
S11305E0C7010E94DD01C8010E94BE01CE010E9424
S11305F0DE03DF91CF911F910F91FF90EF9008954B
S1130600E6EBF0E080818F798083E0EBF0E080819D
S11306108F70808380818E7F8083808182608083DD
S1130620E1EBF0E087EF808387E080838DE98093BE
S1130630B30082E08093700008950F931F93CF93CB
S1130640DF93EC010E94FA038E010C5F1F4F60E2FE
S1130650C8010E94CC01CE0105960E940802CE0179
S113066041960E94DB031A8A1AB887E084B982E0B3
S113067087B9CE010E940003C8010E94D101DF9115
S1130680CF911F910F910895AC014B5F5F4F0E9472
S1130690050408950E9425040895CF93DF93EC0187
S11306A08A89811109C0662371F0CE0105960E94E2
S11306B0160281E08A8B07C0611105C0CE01059640
S11306C00E941D021A8ADF91CF910895EC018C01DA
S11306D00B5F1F4F7C0184E0E80EF11C8091030145
S11306E0882361F0CE010E942504811107C0609126
S11306F00C01C8010E942C02109203018091010197
S1130700882389F0CE010E94250481110CC06091D8
S11307100A01CE010E944D0360910B01C8010E94A1
S113072024021092010180910501882341F08A89F5
S1130730882329F0C8010E9441021092050180918A
S11307400401882321F0B801CE010E943F04809166
S11307500701882329F0CE010E942F04109207017B
S113076080910001882309F4B9CFC7010E94D70101
S11307708FE99FE00197F1F700C00000C7010E94D4
S1130780BF01C7010E94D10110920001A7CF0895B3
S113079084B58F7084BD84B58C7F84BD87EF85BD9F
S11307A085B5876085BDEEE6F0E081E080838081D9
S11307B0897F808308950E94C80308950895ECE713
S11307C0F0E080E4808380818F7780838081836000
S11307D080838081837F8083EAE7F0E087E0808301
S11307E08081806A80838081877F80838081806428
S11307F080830895FC01138221E020936C0022E0A1
S1130800209368000E94DF0308950F931F93CF93F2
S1130810DF938C01EB01CA010E941D02C130D10596
S113082021F481E0F80181830BC0209721F481E059
S1130830F801808305C0229719F481E0F8018283CE
S1130840DF91CF911F910F910895FC019181990F30
S1130850990F8081880F890F9281890F0895FC0177
S113086080917800909179008B3D924008F010823D
S1130870309B1182128216BC10920D010895CF9301
S1130880DF93EC01109204012091780030917900FB
S1130890273C324060F48B818F5F8B838A3050F029
S11308A0CB010E941D0281E0888380E004C01B828A
S11308B081E001C081E0DF91CF9108955058BB27BA
S11308C0AA270ED00DC1FED030F003D120F031F4B0
S11308D09F3F11F41EF4F3C00EF4E095E7FBE9C06A
S11308E0E92F0FD180F3BA176207730784079507BE
S11308F018F071F49EF527C10EF4E0950B2EBA2F73
S1130900A02D0B01B90190010C01CA01A001112411
S1130910FF27591B99F0593F50F4503E68F11A16BD
S1130920F040A22F232F342F4427585FF3CF46954E
S113093037952795A795F0405395C9F77EF41F1670
S1130940BA0B620B730B840BBAF09150A1F0FF0F3A
S1130950BB1F661F771F881FC2F70EC0BA0F621F26
S1130960731F841F48F4879577956795B795F79516
S11309709E3F08F0B3CF9395880F08F09927EE0FA8
S113098097958795089571D008F481E0089504D06F
S11309906894B111D9C00895BCD088F09F5790F0E5
S11309A0B92F9927B751A0F0D1F0660F771F881F90
S11309B0991F1AF0BA95C9F712C0B13081F0C3D0AB
S11309C0B1E00895C0C0672F782F8827B85F39F049
S11309D0B93FCCF3869577956795B395D9F73EF4EF
S11309E090958095709561957F4F8F4F9F4F089597
S11309F0E89409C097FB3EF49095809570956195B5
S1130A007F4F8F4F9F4F9923A9F0F92F96E9BB276A
S1130A109395F695879577956795B795F111F8CFE6
S1130A20FAF4BB0F11F460FF1BC06F5F7F4F8F4F51
S1130A309F4F16C0882311F096E911C0772321F047
S1130A409EE8872F762F05C0662371F096E8862FDF
S1130A5070E060E02AF09A95660F771F881FDAF736
S1130A60880F9695879597F90895990F0008550F63
S1130A70AA0BE0E8FEEF16161706E807F907C0F020
S1130A8012161306E407F50798F0621B730B840B28
S1130A90950B39F40A2661F0232B242B252B21F402
S1130AA008950A2609F4A140A6958FEF811D811DA2
S1130AB0089597F99F6780E870E060E008959FEFDC
S1130AC080EC089500240A941616170618060906E1
S1130AD0089500240A9412161306140605060895B0
S1130AE0092E0394000C11F4882352F0BB0F40F438
S1130AF0BF2B11F460FF04C06F5F7F4F8F4F9F4F78
S1130B00089557FD9058440F551F59F05F3F71F0F9
S1130B104795880F97FB991F61F09F3F79F0879560
S1130B200895121613061406551FF2CF4695F1DFE9
S1130B3008C0161617061806991FF1CF8695710579
S1130B40610508940895E894BB2766277727CB01AD
S1130B5097F908958ADF08F48FEF08950BD0C0CF7A
S1130B60B1DF28F0B6DF18F0952309F0A2CFA7CFA4
S1130B701124EACFC6DFA0F3959FD1F3950F50E07F
S1130B80551F629FF001729FBB27F00DB11D639F3B
S1130B90AA27F00DB11DAA1F649F6627B00DA11DE1
S1130BA0661F829F2227B00DA11D621F739FB00D87
S1130BB0A11D621F839FA00D611D221F749F3327F7
S1130BC0A00D611D231F849F600D211D822F762F90
S1130BD06A2F11249F5750408AF0E1F088234AF08D
S1130BE0EE0FFF1FBB1F661F771F881F91505040D9
S1130BF0A9F79E3F510570F05CCFA6CF5F3FECF3A1
S1130C00983EDCF3869577956795B795F795E795C4
S1130C109F5FC1F7FE2B880F911D9695879597F9D5
S1130C200895EE0FFF1F0590F491E02D099410E054
S1130C30CAE6D0E004C0FE010E9413062296CC3618
S10B0C40D107C9F7F894FFCFB6
S9030000FC
